:020000040000fa
:080000000002040000000000f2
:020000040000fa
:04000800ca05000025
:020000040000fa
:04000c00ca05000021
:020000040000fa
:04001000ca0500001d
:020000040000fa
:04001400ca05000019
:020000040000fa
:04001800ca05000015
:020000040000fa
:04001c00ca05000011
:020000040000fa
:04002000ca0500000d
:020000040000fa
:04002400ca05000009
:020000040000fa
:04002800ca05000005
:020000040000fa
:04002c00ca05000001
:020000040000fa
:04003000ca050000fd
:020000040000fa
:04003400ca050000f9
:020000040000fa
:04003800ca050000f5
:020000040000fa
:04003c00ca050000f1
:020000040000fa
:04004000ca050000ed
:020000040000fa
:04004400ca050000e9
:020000040000fa
:04004800ca050000e5
:020000040000fa
:04004c00ca050000e1
:020000040000fa
:04005000ca050000dd
:020000040000fa
:040054002a0300007b
:020000040000fa
:04005800ca050000d5
:020000040000fa
:04005c00ca050000d1
:020000040000fa
:04006000ca050000cd
:020000040000fa
:04006400ca050000c9
:020000040000fa
:04006800ca050000c5
:020000040000fa
:04006c00ca050000c1
:020000040000fa
:04007000ca050000bd
:020000040000fa
:04007400c0030000c5
:020000040000fa
:04007800ca050000b5
:020000040000fa
:04007c00ca050000b1
:020000040000fa
:04008000ca050000ad
:020000040000fa
:04008400ca050000a9
:020000040000fa
:04008800ca050000a5
:020000040000fa
:04008c00ca050000a1
:020000040000fa
:04009000ca0500009d
:020000040000fa
:04009400ca05000099
:020000040000fa
:04009800ca05000095
:020000040000fa
:04009c00ca05000091
:020000040000fa
:0400a000ca0500008d
:020000040000fa
:0400a400ca05000089
:020000040000fa
:0400a800ca05000085
:020000040000fa
:0400ac00ca05000081
:020000040000fa
:0400b000ca0500007d
:020000040000fa
:0400b400ca05000079
:020000040000fa
:0400b800ca05000075
:020000040000fa
:0400bc00ca05000071
:020000040000fa
:0400c000ca0500006d
:020000040000fa
:0400c400ca05000069
:020000040000fa
:0400c800ca05000065
:020000040000fa
:0400cc00ca05000061
:020000040000fa
:0400d000ca0500005d
:020000040000fa
:0400d400ca05000059
:020000040000fa
:0400d800ca05000055
:020000040000fa
:0400dc00ca05000051
:020000040000fa
:0400e000ca0500004d
:020000040000fa
:0400e400fa0200001c
:020000040000fa
:0400e800ca05000045
:020000040000fa
:0400ec00ca05000041
:020000040000fa
:0400f000ca0500003d
:020000040000fa
:0400f400ca0400003a
:020000040000fa
:0400f80012040000ee
:020000040000fa
:0400fc00ca05000031
:020000040000fa
:04010000ca0500002c
:020000040000fa
:04010400ca05000028
:020000040000fa
:04010800ca05000024
:020000040000fa
:04010c00ca05000020
:020000040000fa
:04011000ca0500001c
:020000040000fa
:04011400ca05000018
:020000040000fa
:04011800ca05000014
:020000040000fa
:04011c00ca05000010
:020000040000fa
:04012000ca0500000c
:020000040000fa
:04012400ca05000008
:020000040000fa
:04012800ca05000004
:020000040000fa
:04012c00ca05000000
:020000040000fa
:04013000ca050000fc
:020000040000fa
:04013400ca050000f8
:020000040000fa
:04013800ca050000f4
:020000040000fa
:04013c00ca050000f0
:020000040000fa
:04014000ca050000ec
:020000040000fa
:04014400ca050000e8
:020000040000fa
:04014800ca050000e4
:020000040000fa
:04014c00ca050000e0
:020000040000fa
:04015000ca050000dc
:020000040000fa
:04015400ca050000d8
:020000040000fa
:04015800ca050000d4
:020000040000fa
:04015c00ca050000d0
:020000040000fa
:04016000ca050000cc
:020000040000fa
:04016400ca050000c8
:020000040000fa
:04016800ca050000c4
:020000040000fa
:04016c00ca050000c0
:020000040000fa
:04017000ca050000bc
:020000040000fa
:04017400ca050000b8
:020000040000fa
:04017800ca050000b4
:020000040000fa
:04017c00ca050000b0
:020000040000fa
:04018000ca050000ac
:020000040000fa
:04018400ca050000a8
:020000040000fa
:04018800ca050000a4
:020000040000fa
:04018c00ca050000a0
:020000040000fa
:04019000ca0500009c
:020000040000fa
:04019400ca05000098
:020000040000fa
:04019800ca05000094
:020000040000fa
:04019c00ca05000090
:020000040000fa
:0401a000ca0500008c
:020000040000fa
:0401a400ca05000088
:020000040000fa
:0401a800ca05000084
:020000040000fa
:0401ac00ca05000080
:020000040000fa
:0401b000ca0500007c
:020000040000fa
:0401b400ca05000078
:020000040000fa
:0401b800ca05000074
:020000040000fa
:0401bc00ca05000070
:020000040000fa
:0401c000ca0500006c
:020000040000fa
:0401c400ca05000068
:020000040000fa
:0401c800ca05000064
:020000040000fa
:0401cc00ca05000060
:020000040000fa
:0401d000ca0500005c
:020000040000fa
:0401d400ca05000058
:020000040000fa
:0401d800ca05000054
:020000040000fa
:0401dc00ca05000050
:020000040000fa
:0401e000ca0500004c
:020000040000fa
:0401e400ca05000048
:020000040000fa
:0401e800ca05000044
:020000040000fa
:0401ec00ca05000040
:020000040000fa
:0401f000ca0500003c
:020000040000fa
:0401f400ca05000038
:020000040000fa
:0401f800ca05000034
:020000040000fa
:0401fc00ca05000030
:020000040000fa
:04020000ca0500002b
:020000040000fa
:04020400ca05000027
:020000040000fa
:04020800ca05000023
:020000040000fa
:04020c00ca0500001f
:020000040000fa
:04021000ca0500001b
:020000040000fa
:04021400ca05000017
:020000040000fa
:04021800ca05000013
:020000040000fa
:04021c00ca0500000f
:020000040000fa
:04022000ca0500000b
:020000040000fa
:04022400ca05000007
:020000040000fa
:04022800ca05000003
:020000040000fa
:04022c00ca050000ff
:020000040000fa
:04023000ca050000fb
:020000040000fa
:04023400ca050000f7
:020000040000fa
:04023800ca050000f3
:020000040000fa
:04023c00ca050000ef
:020000040000fa
:04024000ca050000eb
:020000040000fa
:04024400ca050000e7
:020000040000fa
:04024800ca050000e3
:020000040000fa
:04024c00ca050000df
:020000040000fa
:04025000ca050000db
:020000040000fa
:04025400ca050000d7
:020000040000fa
:04025800ca050000d3
:020000040000fa
:04025c00ca050000cf
:020000040000fa
:04026000ca050000cb
:020000040000fa
:04026400ca050000c7
:020000040000fa
:100400008f2923000eff27000e0188000000000046
:10041000000020000000e000020032000001200087
:100420002002880014000700dc0107000000e00043
:1004300003003a00c0c1260001002000020037007e
:100440000000200001002000810f70000100320038
:100450000f000700000020000000e0000200320052
:100460000000020000000000d2690200000000004d
:100470000040da000000fe00c02e20000000e00076
:1004800002003200002020009001880000000600d9
:10049000a1028800800478000000eb001f003700f4
:1004a000e284440054a0b4009905ba00e2844400f8
:1004b00054a0b4009906ba00e284440054a0b400e9
:1004c0000006eb00476fde00fd07b200ae018800ba
:1004d000636ce10003003a000ad801000000eb0061
:1004e0000e003700606ce10008003a00004deb00a0
:1004f0000a05e800020039003420ec000af0a000f0
:100500008b05e900f9ff3e00040037006168e10057
:10051000010032000086eb000b00070019c7ba008b
:100520000e04e0001905ba0003003a000a00e000da
:10053000dbff3a0000000600fe07b200ae028800b2
:100540008a047800f5ff37000cd0a300e20f4d00bd
:100550001c00390089027800354dba000a05e80010
:10056000020039003420ec000af0a0008b05e900fd
:100570000f003200254dba000a05e80002003900dc
:100580003420ec000af0a0008b05e90008003200de
:100590000c00e0000600320015cdba000a05e800a4
:1005a000020039003420ec000af0a0008b05e900bd
:1005b0008984e80054a0b4000b00e000e2ff3a0098
:1005c000000006009902ba00055d78008b05e9007d
:1005d000f7ff3200c82ade00055d78008b05e900d0
:1005e000f3ff32000c00e000f1ff320019ddba0029
:1005f000eeff3700801f78003200f8003400f8006a
:1006000010002000a0018800002020009001880038
:10061000000000000000fa00908380000000e80065
:1006200090838800908380000000e00003003a007f
:10063000a08380000000e800a083880005e8a900ee
:100640000080fa003400f9003200f9004f00780011
:10065000004006003600f800809fbe00829fbe006a
:10066000849fbe00869fbe003200f8003400f80070
:1006700010002000a00188000020200090018800c8
:10068000000000000200fa000000eb006218070002
:10069000004f78001e4078009717070046d0bf0033
:1006a000e14f500025003a00f0c3b3009e407800af
:1006b00080cf5000280032003a70ef00a0c3b30092
:1006c0009e40780080cf500019003a0037d0bf001c
:1006d0000040e80037f0b70037d0bf00e34f5000cc
:1006e0001d003a003770ef0010c0b30077290700f3
:1006f00060c0b30075290700d100200050cc28004d
:10070000b02c07000040eb0070290700a0ceb3001a
:100710006e290700f0c4b3006c29070040c0b30085
:100720006a2907004670ef00c71707000a00370064
:100730003770ef004670ef00070037001e4078006a
:10074000fb4f500004003a003a70ef003770ef00a2
:1007500010c0b30046f0b7000168a9000080fa009d
:100760003400f9003200f9004f03be004f02be0012
:100770004f01be004f00be003600f90000400600e9
:10078000809fbe003200f8003400f8001000200006
:10079000a0018800002020009001880000000000d7
:1007a0000200fa00907080004b00de00004f7800dd
:1007b0009e00fb0040d0bf000080fb00008068006e
:1007c00061006000004078000004e0000300320097
:1007d000e08180000000e800e08188009e00fb00ce
:1007e00040d0bf000080fb00008068006200600015
:1007f0000000e00003003200f08180000000e8000b
:10080000f08188001e40780040f0b7000268a9001f
:100810000080fa003400f9003200f9004f00be00f9
:10082000004006003600f800809fbe00829fbe0098
:10083000849fbe00869fbe003200f8003400f8009e
:1008400010002000a00188000020200090018800f6
:10085000000000000400fa0039d0bf000004e000ee
:1008600021003a0010828000e10f50003f00360066
:10087000108280000000e9001082880045d0bf008f
:10088000f04f500010003a0065160700204798000e
:1008900063160700000f78001e0078004800dd0096
:1008a000000f78002e4090000080fb001e0f4000db
:1008b000000028001e0f40001e0078004500de00ea
:1008c000000f78000500370055160700000f78006c
:1008d0001e0078004300dd00000f78001e00780045
:1008e0001a10070021003700232a0700000f7800a4
:1008f00045d0bf00f04f500011003a001e007800b4
:100900004400dd00000f7800000028001e0f4000aa
:100910001e0078004800de00004078002316070023
:100920000080fb00000f78001e0078000040780077
:100930001e1607000080fb00000f7800080037003b
:100940001e0078004400de00000f78001e007800d2
:1009500000407800151607000080fb00000f7800ab
:10096000108280000000e800108288000688a9003c
:100970000080fa003400f9003200f9004f03be0095
:100980004f02be004f01be004f00be003600f9000e
:10099000004006003600f800809fbe00829fbe0027
:1009a000849fbe00869fbe00889fbe003200f80074
:1009b0003400f80010002000a00188000020200072
:1009c00090018800000000000c00fa003bd0bf003e
:1009d0000004e0006400320035d0bf000004e000f5
:1009e00061003200e08180008000eb009901070087
:1009f0000004be003bd0bf000080fb008000eb0085
:100a0000940107000001be000800be002701070096
:100a10002007980031079800f08180008000eb00eb
:100a20008c0107000004be0035d0bf000080fb0031
:100a30008000eb00870107000001be000800be0037
:100a40001a010700400798005107980038d0bf00ee
:100a50000004e000050032003bd0bf000080fb0036
:100a60000000ea00000f7800030037003bd0bf0011
:100a70000080fb00000f7800020020000312240019
:100a80004e009000de0090004600070018c0b30042
:100a90002e019000be019000460107000000e0001a
:100aa000010035000044eb000804e00011003200b2
:100ab00036d0bf000004e0000600320035d0bf0091
:100ac0000080fb00e1ff2f0000805000100798001d
:100ad0000400370035d0bf000080fb000080e80034
:100ae000100798009e0090001e0078004c2c070014
:100af0001d00370002002000031224004e00900069
:100b0000de0090002600070018c0b3002e01900000
:100b1000be019000290107000000e00001003c0038
:100b20000044eb000804e0000f00320036d0bf00a4
:100b30000004e0000500320035d0bf000080fb005b
:100b400062001000100798000400370035d0bf0085
:100b50000080fb000080e900100798009e009000d4
:100b60001e0078002e2c07000688a9000080fa00dd
:100b70003400f9003200f9004f04be004f03be00fc
:100b80004f02be004f01be004f00be003600f9000c
:100b9000004006000040da000000fe0000000500f2
:100ba00003f0a200889fbe008a9fbe008c1f7800c1
:100bb0006d010700740133006450e1004f00320002
:100bc0006420e1005200320003826c0007003b0009
:100bd0000905d0000306d000820f54000c065d000a
:100be0000200390002003200890178000306780013
:100bf0008582550004003d000003fd008103fd00d7
:100c00008502ea008b854200840f720002003b00df
:100c100060001000e08018006011b8000005eb00d3
:100c20007a28e1000a00390006007800c75ddd007f
:100c3000f707b200878075002d00370082817100b0
:100c40000a017800610560008180d1000080d30036
:100c50008502e900f9ff3b00060440008784480054
:100c600002003b0060041400e0841c000988a3001b
:100c7000070032008a817100828171006101640085
:100c80008904d1000884d3008b05e80017003700e1
:100c90000978a30013003a000b00e00013003400b1
:100ca0008b05e9000804440089844c000a44740060
:100cb0000978a3000d003a000b00e00007003400a3
:100cc0008b05e9000804440089844c0001003a00c7
:100cd0000b0020000978a300f7ff32000001eb00b1
:100ce00002003700828171000a017800e3000700ea
:100cf0000cf0a70001f0a0002c0137006420e100f7
:100d000002003a00838f6c002c0133000801be0002
:100d10000200be0025013700889fbe008a9fbe00ea
:100d20008c9fbe000004be00fa0007000800be0051
:100d3000890678006420e1000800390004003200d0
:100d40000160a000120220001284880053003700c6
:100d500091fc2300b0fd20004e0037000006eb00a0
:100d600009f0a10003f82300020020000800be00e3
:100d7000900007000600340001f823000000200066
:100d80000801be00490007000004be002c0020003e
:100d90000800be0093e82300320a23008500070004
:100da000120034000801be00d1fd2300703d2b006d
:100db0007cff07000005be00b3f32300f27a260093
:100dc0000800be000001070003f823000200200015
:100dd00073ff07000801be0072ff07000a01be0092
:100de000320007000004be000c06e8000800be0048
:100df00001f0a10002002000039823006d0007000d
:100e00000800be00160035000801be00ee00070015
:100e10000005be0032cd2c0043fb230061ff07001c
:100e2000809fbe001269280003d52b000a00be0077
:100e3000e5000700620f210013ef2b0059ff0700a8
:100e40000a01be00e00007004f01be0017000700c6
:100e50000801be00dc0007000801be0051ff0700ca
:100e60000c00e0000b0032000c10a70001f0a20003
:100e7000b2fd200093fc23006260e1000400320018
:100e800022a9200063f023000c10a70063f82300c0
:100e900044ff07000df0a70001f0a2004f06be00be
:100ea0004f05be004f04be0000000600889fbe0034
:100eb0008a9fbe008c1f7800ab000700b200330091
:100ec00003866c006450e1002e0032006420e100d3
:100ed000330032006150e1002f0032006120e10058
:100ee0003100320085855500eb07b0000900200075
:100ef00008042000050037000804440089844c00e1
:100f00000a0031000603430087834b0000015300b1
:100f100081815b00f8ff33000203be000800a000df
:100f20000804440089844c00f6ff3900c639dd000e
:100f30008301730001003200130020008904d100f6
:100f40000884d3000998a300050032000800a70018
:100f50000300a0008904d1000884d3008b05e800b9
:100f60008904d1000884d3000001eb000281d20083
:100f70004200070001f0a1000cf0a70001f0a00062
:100f80008a0037006420e1008c0032000801be00b6
:100f90000200be00f7ff37006120e1008700320049
:100fa0006000b800f3ff37000000200001f82700c0
:100fb000f0ff370014002000ee003700f4ff2f0090
:100fc000ec0037000001be00520007000470a700cb
:100fd00003f0a1006509b100160032000d003500d4
:100fe0006828e10006003500f0ff2f00f1ff270020
:100ff0000300e00013003b00010028000000050092
:1010000000004000818048008502e900fcff3a00b2
:1010100008003700f88f420002003c008000eb001f
:10102000000005008100d1000080d3008502e800a7
:10103000fcff3a000300e00002003b0060001000eb
:10104000e0801800000006004f89de008201780071
:10105000e30037006011b800f10037000001eb0039
:101060009d000700040032000200200003f8230066
:1010700001f0a700cafe0700000006008100200062
:10108000618055000b003d000b00200061fe2f0029
:101090000100e1001d0034008281710061016400e3
:1010a0008904d1000884d3000000e800faff3a0068
:1010b0007100200061006400030070000200600005
:1010c0000900320061044400e0844c000988a50056
:1010d000050032008b05e8006808e10002003a00d4
:1010e0008904d1000884d300f20f20000258e100e7
:1010f00005003d00c75ddd00f907b200898075007d
:1011000008007800000006000bf827008b0078002c
:1011100000000500c70ade00f107b200f50fb200bb
:1011200008003200e1cf4200020032000170a0004e
:1011300024000500810f7000010032000408050042
:1011400044000500810f700002003a001400050001
:101150008502e9000000400081c04800fcff3b0020
:101160000170a000240005000004be00e9ff070094
:101170000003be000405be000200be00e5ff07003c
:10118000844f7500000006000200be006450e100bc
:10119000050036006420e100020036000968a30063
:1011a00001003a000800be000160a0004f06780070
:1011b0004f05be004f04be0000000600f0ff2f00e8
:1011c000f1ff2700f9ff3700889fbe008a9fbe000d
:1011d0008c1f7800e4ff0700ebff330003866c00f0
:1011e0006450e100240032006420e1002700320056
:1011f0006150e100220032006120e1002100320054
:101200008b854200eb07b1000134b800003ab8000a
:101210000804420089844a00013ab8000030b8004e
:101220008880400009014a000400330000004000ab
:1012300081804800020149008b05e900c909dd00f1
:10124000830170000100320013002000c814de008a
:101250004814dd004709de001200b200c808de00b5
:101260000884700085ff070001f0a1000cf0a700c2
:1012700001f0a000cdff37006120e100cfff320078
:101280000801be000200be00f7ff37006150e10018
:10129000fcff3a00c9ff37006022b80006022000b8
:1012a0000000d0008180d2000482d2008582d2006a
:1012b0000000a0000202520083825a0003003100a5
:1012c0000202420083824a000000a1000603e900f6
:1012d000f3ff3a0000000600889fbe008a9fbe0010
:1012e0000003be008bff0700850578008281520055
:1012f000020020006220e10004003a00f307b10080
:10130000040035007718e100040035000600be0037
:10131000140037006000b8000f003700f50f200000
:10132000faff2f008502d1000a85d3008301e9006e
:10133000fcff3b008184620000046500890f74009b
:10134000f2ff32008582ea000a85ea0081846200a9
:101350000004650049ff070007f0a70001f0a000a6
:101360000081eb000200e0004f05be004f04be000c
:1013700000000600889fbe008a9fbe00841f780080
:1013800079ff07004f00780011003300f0ff2f00b5
:10139000838f6c0006003b00040565000a00a7006f
:1013a0000800370009f0a6001000200008003700f0
:1013b000820f5400838f5c0003003900100020006e
:1013c00001003e000000200009f0a7000000ea0034
:1013d0004f05be004f04be000000e0000000060004
:1013e000881f7800030478000300e00007003d0038
:1013f00060001000e080180060011900e081190011
:1014000002003b0001f02d0003003700040007003c
:1014100008f0a70001f0a0004f04780000000600cb
:10142000889fbe008a9fbe00008270000402710087
:1014300004827100260032000004be000200be00db
:101440006011b8006b092000950220000182cf00d6
:101450000a0039000541b1000082cf0007003900c1
:101460000541b1000982cf00040039000541b100f7
:101470000882cf00010039000541b1000542520049
:10148000120032000a003b00828171006101640099
:101490008100d1000080d3008984d3000884d30068
:1014a0008b05e8000442e800f7ff3a000700370028
:1014b0000804440089844c000000480081804800f2
:1014c0008b05e9000442e900f9ff3a00ebfe070052
:0c14d0004f05be004f04be0000000600e7
:020000040000fa
:1014dc00000000000000000000000000065f00009b
:1014ec0006000000070300000007000003240000b2
:1014fc007e2400007e240000242b00006a120000d1
:10150c00006300001308000064630000364900000b
:10151c0056200000500000000703000000000000ef
:10152c00003e00004100000000000000413e0000b1
:10153c0000000000083e00001c3e000008080000ef
:10154c00083e00000808000000e0000060000000f9
:10155c0000080000080800000808000000600000f7
:10156c0060000000002000001008000004020000d1
:10157c003e510000494500003e000000427f000043
:10158c004000000062510000494900004622000062
:10159c00494900004936000018140000127f000071
:1015ac001027000045450000453900003c4a00006a
:1015bc0049490000300100007109000005030000da
:1015cc003649000049490000360600004949000030
:1015dc00291e0000006c00006c00000000000000e0
:1015ec00ec6c000000000000081400002241000018
:1015fc0000240000242400002424000000410000ea
:10160c002214000008020000015900000906000025
:10161c003e4100005d5500001e7e000009090000df
:10162c00097e00007f49000049490000363e000059
:10163c0041410000412200007f4100004141000077
:10164c003e7f000049490000494100007f0900002d
:10165c0009090000013e000041490000497a0000e0
:10166c007f080000080800007f000000417f000098
:10167c004100000030400000404000003f7f00006f
:10168c0008140000224100007f4000004040000090
:10169c00407f000002040000027f00007f02000077
:1016ac00040800007f3e000041410000413e000064
:1016bc007f09000009090000063e000041510000ae
:1016cc00215e00007f090000091900006626000059
:1016dc004949000049320000010100007f0100006f
:1016ec00013f000040400000403f00001f20000070
:1016fc00402000001f3f0000403c0000403f000025
:10170c006314000008140000630700000870000058
:10171c00080700007149000045430000000000006c
:10172c007f4100004100000002040000081000008e
:10173c0020000000414100007f0000000402000076
:10174c000102000004800000808000008080000006
:10175c0000030000070000000020000054540000ab
:10176c00547800007f4400004444000038380000e6
:10177c004444000044280000384400004444000065
:10178c007f3800005454000054180000087e0000fc
:10179c000909000000180000a4a40000a47c0000ab
:1017ac007f0400000478000000000000007d0000b1
:1017bc000000000040800000847d0000007f0000dd
:1017cc001028000044000000000000007f400000d2
:1017dc00007c000004180000047800007c04000069
:1017ec000478000000380000444400004438000035
:1017fc00fc4400004444000038380000444400001d
:10180c0044fc000044780000440400000808000078
:10181c005454000054200000043e000044240000f6
:10182c00003c0000402000007c0000001c20000058
:10183c00402000001c3c000060300000603c0000b8
:10184c006c100000106c0000009c0000a0600000f8
:10185c003c00000064540000544c000000080000e0
:10186c003e41000041000000000000007f0000002d
:10187c0000000000414100003e0800000201000091
:10188c000201000000310000333a0000353800003e
:10189c003a35000036000000313200002f300000d5
:1018ac00372f0000313700000021000042410000ba
:1018bc0054540000204c00004f5700002100000041
:1018cc00506c000065610000736500002052000040
:1018dc00656300006861000072670000650000002d
:1018ec004368000061720000676500003a20000048
:1018fc00200000004261000074740000657200005a
:10190c00793a000020000000252000002000000093
:10191c00004600006f7200006d7500006c610000e5
:10192c00204100006c6c0000436f000064650000f7
:10193c000057000061690000746900006e670000c8
:10194c00204600006f7200002053000077690000f1
:10195c0074630000680000002020000020200000bc
:10196c00202000002020000020200000202000006b
:10197c002020000020200000202000000046000055
:10198c0041200000436f00006e6e00006563000094
:10199c007465000064000000507200006f67000066
:1019ac00726100006d2000002d20000052750000b7
:1019bc006e6e0000696e000067000000507200003f
:1019cc006f670000726100006d2000002d20000088
:1019dc00466900006e69000073680000002d00006d
:1019ec002d2d00002d2d00002d2d00002d2d000083
:1019fc002d2d00002d2d00002d2d00002d2d000073
:101a0c002d2d00002d2d00002d2d00002d2d000062
:101a1c002d2d00002d2d00002d0000004f62000028
:101a2c0073740000616300006c650000732000009b
:101a3c006465000074650000637400006564000058
:101a4c003a0000004d2d00004c6900006e6500004e
:101a5c003a00000031350000303000006d6d0000a0
:101a6c000041000063740000756100006c3a0000d6
:101a7c00006d00006d0000004f62000073740000e8
:101a8c00616300006c6500002d3100003a0000001d
:101a9c004f62000073740000616300006c6500000d
:081aac002d3200003a00000099
:020000040000fa
:101ab4000600fa00000f780011079800220798002a
:101ac4001e007800900078001e0090000080ea005c
:101ad400808060002e0190001e00900000006100d4
:101ae400810070001e007800010878000080fa0070
:101af400000006000800fa00000f780011079800a3
:101b040022079800330798001e0090009000780088
:101b14002e0090000080ea00808060001e0090008b
:101b2400010878001e007800900078002e009000d4
:101b34000080ea00808060003e0190002e0090004a
:101b440000006100810070001e0078000108780028
:101b54000080fa00000006000600fa00000f78007a
:101b640011079800424798001e0078009000780002
:101b74001e009000808060004e4090000080fb00ba
:101b84000008de000080fa00000006000800fa00e9
:101b9400000f780011079800220798006347980007
:101ba4001e009000900078002e00900081007000cc
:101bb4001e009000010878001e0078009000780054
:101bc4002e009000808060006e4090000080fb003a
:101bd4000008de000080fa00000006000600fa009b
:101be400404798000040eb00004f78000d0037009c
:101bf4000000eb00100798000500370010c0b30088
:101c04000e0007001e0090000000e8001007980076
:101c14009e009000603e2000808f5000f7ff34004b
:101c24001e4fe8004e4090009e40780080cf500048
:101c3400efff35000080fa00000006000400fa00ff
:101c4400204798000040eb00004f78000500370063
:101c54000060fe000017210011002000062f07007d
:101c64001e4fe8002e4090009e40780080cf500028
:101c7400f7ff35000080fa00000006000200fa00b9
:101c8400000f780005003700a05b2400010020004d
:101c9400f92e070011f02f001e8f4000f00f2000d6
:101ca4009e007800808f5000f7ff3e001e007800f1
:101cb4000000e0001b0032001e0078006101b80043
:101cc400f00f2000010020000202780003017800d8
:101cd40080017800010078000302620000006100c6
:101ce4006101b800c011dd00020020000200be0046
:101cf4006121b8000200700083807000620420003b
:101d04008289b900e002b90084017800030141002e
:101d1400630420000300b800010141008200780040
:101d2400d52e07000080fa00000006000200fa0029
:101d3400000f78000500370000e92500011120009c
:101d4400cd2e070011f02f001e8f4000f00f200051
:101d54009e007800808f5000f7ff3e001e00780040
:101d64000000e0001b0032001e0078006101b80092
:101d7400f00f200001002000020278000301780027
:101d84008001780001007800030262000000610015
:101d94006101b800c011dd00020020000200be0095
:101da4006121b800020070008380700002172100d6
:101db4008289b900e102b90084017800030141007d
:101dc400031721000300b8000101410082007800dc
:101dd400a92e07000080fa00000006000200fa00a5
:101de400000f78000400370000c0eb0093ff0700e9
:101df40011f02f001e8f4000f00f20009e0078008d
:101e0400808f5000f8ff3e001e0078000000e000c4
:101e1400030032001e0078000040780087ff0700ae
:101e24000080fa00000006000200fa00000f7800ab
:101e34000500370000282600117f22008e2e07009f
:101e440011f02f001e8f4000f00f20009e0078003c
:101e5400808f5000f7ff3e001e0078000000e00075
:101e64001c0032001e0078006101b800f00f200051
:101e7400010020000202780003017800800178004c
:101e84000100780003026200000061006101b800f3
:101e9400c011dd00020020000200be006121b80074
:101ea400020070008380700002d821008289b9008a
:101eb400c34220008382b9008401780003014100f9
:101ec40003d821000300b80001014100820078001a
:101ed400692e07000080fa00000006000200fa00e4
:101ee400000f78000400370000c0eb003bff070040
:101ef40011f02f001e8f4000f00f20009e0078008c
:101f0400808f5000f8ff3e001e0078000000e000c3
:101f1400030032001e007800004078002fff070005
:101f24000080fa00000006000600fa00000f7800a6
:101f34001107980022079800ae0090001e00900040
:101f4400808f5000040031002e0090001e004000dd
:101f540010407800010037000040eb000080fa00d8
:101f6400000006000600fa001007980021079800f8
:101f74000000eb00000f7800060037001e00900000
:101f84001e004000104078000004e000050032000c
:101f94001e0fe8002e0090009e007800808f5000f5
:101fa400f6ff39001e0078000080fa0000000600e9
:101fb4000e00fa00100798002107980032079800d5
:101fc4004307980054079800650798006e00900036
:101fd4000000e00002003a005e009000400037007c
:101fe4000000eb00000f7800060037001e00900090
:101ff4001e004000104078000004e000050032009c
:102004001e0fe8002e0090009e007800808f500084
:10201400f6ff39003e0090009e0f50000400390086
:102024005e0090008040eb00014878002b003700f0
:10203400be0090004e009000008040009e0f5000b3
:10204400030039003e0090001e0010004007980075
:10205400ce0090006e009000808f50000200360089
:10206400ee009000410798009e0090003e00900012
:1020740000804000100798000000eb00000f78007b
:102084000b0037001e009000904078005e00900026
:10209400014878005e0090000000e80050079800b6
:1020a4001e0090000000e800100798001e0fe800d2
:1020b4004e0090009e007800808f5000f1ff3900a0
:1020c4006e0090009e007800808f50000300310065
:1020d4005e0090008040eb00014878005e009000b4
:1020e4000080fa00000006000c00fa0010079800b7
:1020f4002107980032079800430798005407980076
:102104005e0090000000e00002003a004e009000e3
:10211400320037000000eb00000f780006003700a3
:102124001e0090001e004000104078000004e000f3
:10213400050032001e0fe8002e0090009e0078007b
:10214400808f5000f6ff39003e0090009e0f500033
:10215400020036009e00780031079800be0090000f
:102164005e009000808f500002003600de00900078
:10217400310798000000eb00000f78000b003700d7
:102184001e009000904078004e00900001487800b6
:102194004e0090000000e800400798001e009000e8
:1021a4000000e800100798001e0fe8003e009000b1
:1021b4009e007800808f5000f1ff39005e0090008f
:1021c4009e007800808f5000030031004e00900084
:1021d4008040eb00014878004e0090000080fa0037
:1021e400000006000e00fa0020079800310798004e
:1021f4004207980053079800640798006e00900007
:102204000000e00002003a005e0090003900370050
:102214000000eb00000f7800060037002e0090004d
:102224001e004000104078000004e0000500320069
:102234001e0fe8003e0090009e007800808f500042
:10224400f6ff39004e0090009e0f50000200360049
:102254009e007800410798004e0090001e00100078
:1022640010079800ce0090006e009000808f500000
:1022740002003600ee00900041079800ae00900086
:102284001e00900000804000200798000000eb0032
:10229400000f78000b0037002e009000904078006b
:1022a4005e009000014878005e0090000000e800a5
:1022b400500798002e0090000000e80020079800c6
:1022c4001e0fe8004e0090009e007800808f5000a2
:1022d400f1ff39006e0090009e007800808f50005e
:1022e400030031005e0090008040eb00014878005c
:1022f4005e0090000080fa00000006000e00fa0064
:10230400400798005107980062079800ce0090009b
:102314001107980000712200200798000000eb00cc
:10232400300798006e0090000000e00002003a00c0
:102334000040eb004b0037001e0090000000e0005e
:1023440009003d005e009000d1c2b300014878004e
:102354003e0090000000e800300798001e00900046
:102364000000ea00100798000040eb00004f7800de
:102374001e0090000000e00028003a0010c0b300e6
:10238400004f780010002000200798002300370039
:102394009e0090002e009000808f500003003100ba
:1023a4001e4078000004e000170032009e009000f8
:1023b4002e00900000017800110009008280d800ee
:1023c400004f7800de0090003e0090000080400046
:1023d40002c3b3009e404100014878003e009000d3
:1023e4000000e800300798009e0090001e81fb006a
:1023f4002e0090008090b9000080500010079800d3
:1024040010c0b300004f7800ae009000d0cc2c0078
:102414000008b8004308de0020079800be009000c2
:102424006e009000808f5000030031002e00900059
:102434000000e000d6ff3a00be0090006e0090005d
:10244400808f500005003100de0090003e009000b7
:10245400008040008040eb00014878003e0090007e
:10246400004078000080fa00000006001400fa0022
:102474006007980071079800020f9800130f9800e6
:102484006e019000fe019000120798002307980047
:1024940000a02c00a1b92300300798004107980040
:1024a4000000eb00500798001e0890000000e000b8
:1024b40002003a000040eb00670037001e00900065
:1024c400ae009000e00f5000e08f58000c003d007b
:1024d4000e089000d1c2b300014878005e0090005d
:1024e4000000e800500798001e009000ae00900025
:1024f40060001000e0801800100798002107980081
:102504000040eb00004f78001e009000ae009000e9
:10251400e00f5000e08f58003b003a0010c0b300b9
:10252400004f7800100020000100200030079800c0
:1025340041079800340037001e019000ae0190005e
:102544003e009000ce009000800f5100818f590012
:10255400030031001e4078000004e0002300320034
:102564001e009000ae0090003e019000ce0190004d
:1025740048fb0700004f78008e0890005e00900032
:102584000080400003c3b3009ec0410001487800ae
:102594005e0090000000e800500798001e029000c2
:1025a400ae0290001e80fb008000eb003e01900014
:1025b4008191b900ce019000809bb900860178001a
:1025c40003014100be0190000018b8000101410060
:1025d400820078000000520081805a0010079800a1
:1025e4002107980010c0b300004f78003e0090000f
:1025f400ce009000a20020000300200025fb07006d
:102604003007980041079800de0090001e089000f3
:10261400808f5000050031003e009000ce009000f5
:10262400e00f5000e08f5800c3ff3a00de00900036
:102634001e089000808f5000050031008e08900025
:102644005e009000008040008040eb00014878006c
:102654005e009000004078000080fa000000060050
:102664000e00fa004007980051079800620798008e
:10267400ce009000110798000071220020079800f6
:102684000000eb00300798006e0090000000e000ae
:1026940002003a000040eb003f0037000040eb002e
:1026a400004f78001e0090000000e00028003a006f
:1026b40010c0b300004f78001000200020079800dd
:1026c400230037009e0090002e009000808f500061
:1026d400030031001e4078000004e00017003200bf
:1026e4009e0090002e009000000178001100090067
:1026f4008280d800004f7800de0090003e009000f9
:102704000080400002c3b3009e40410001487800ad
:102714003e0090000000e800300798009e80fb0017
:102724002e0090008088b9009e0090000080500028
:102734001007980010c0b300004f7800ae0090005e
:10274400d0cc2c000008b8004308de002007980015
:10275400be0090006e009000808f50000300310096
:102764002e0090000000e000d6ff3a00be0090006a
:102774006e009000808f500005003100de00900054
:102784003e009000008040008040eb00014878004b
:102794003e009000004078000080fa00000006002f
:1027a4001400fa006007980071079800020f98005f
:1027b400130f98006e019000fe019000120798001c
:1027c4002307980000a02c00a1b92300300798002b
:1027d400410798000000eb00500798001e08900085
:1027e4000000e00002003a000040eb005600370011
:1027f4000040eb00004f78001e009000ae009000f7
:10280400e00f5000e08f58003b003a0010c0b300c6
:10281400004f7800100020000100200030079800cd
:1028240041079800340037001e019000ae0190006b
:102834003e009000ce009000800f5100818f59001f
:10284400030031001e4078000004e0002300320041
:102854003e019000ce0190001e009000ae0090005a
:102864008cfa0700004f78008e0890005e009000fc
:102874000080400003c3b3009ec0410001487800bb
:102884005e0090000000e800500798001e80fb00e6
:102894008000eb003e0190008191b900ce019000d0
:1028a400809ab9008401780003014100be019000c0
:1028b4000018b80001014100820078001e01900058
:1028c400ae0190000000510081805900100798006b
:1028d4002107980010c0b300004f78003e0090001c
:1028e400ce009000a20020000300200069fa070037
:1028f4003007980041079800de0090001e08900001
:10290400808f5000050031003e009000ce00900002
:10291400e00f5000e08f5800c3ff3a00de00900043
:102924001e089000808f5000050031008e08900032
:102934005e009000008040008040eb000148780079
:102944005e009000004078000080fa00000006005d
:102954001400fa006007980071079800020f9800ad
:10296400130f98006e019000fe019000120798006a
:102974002307980000a02c00a1b923003007980079
:10298400410798000000eb00500798001e089000d3
:102994000000e00002003a000e08900066003700d4
:1029a4001e009000ae009000e00f5000e08f580031
:1029b4000c003d000e089000d1c2b300014878001d
:1029c4005e0090000000e800500798001e00900090
:1029d400ae00900060001000e0801800100798001e
:1029e400210798000040eb00004f78001e00900083
:1029f400ae009000e00f5000e08f58003b003a001a
:102a040010c0b300004f7800100020000100200027
:102a14003007980041079800340037001e019000e9
:102a2400ae0190003e009000ce009000800f510057
:102a3400818f5900030031001e4078000004e0003b
:102a4400230032001e009000ae0090003e01900072
:102a5400ce0190000ffa0700004f78008e08900016
:102a64005e0090000080400003c3b3009ec041009c
:102a7400014878005e0090000000e80050079800cc
:102a84001e029000ae0290001e80fb008000eb004e
:102a94003e0190008191b900ce019000809bb90065
:102aa4008601780003014100be0190000018b800bf
:102ab40001014100820078000000520081805a0028
:102ac400100798002107980010c0b300004f780049
:102ad4003e009000ce009000a200200003002000e1
:102ae400ecf907003007980041079800de009000d9
:102af4001e089000808f5000050031003e009000b9
:102b0400ce009000e00f5000e08f5800c3ff3a0061
:102b1400de0090001e089000808f500005003100f8
:102b24008e0890005e009000008040008040eb0022
:102b3400014878000e0890000080fa0000000600aa
:102b44000c00fa002007980031079800420798000b
:102b5400530798005e0090000000e000320032004d
:102b6400be0090005e009000808f50000200310093
:102b7400de009000310798000000eb00000f7800a1
:102b84001a0037002e0090001e004000104078000c
:102b94000080fb00100798009e00900000042000b5
:102ba400808f5000080036009e009000a005200091
:102bb400808f500004003e009e0090000002200020
:102bc40000806800100798004e0090001e0040002e
:102bd4009e00900081407800014878001e0090001b
:102be4000000e000060032001e0fe8003e009000e6
:102bf4009e007800808f5000e2ff3900010037000a
:102c0400000000005e0090009e007800808f50005d
:102c1400060031004e0090001e0040008040eb0092
:102c24000148780001003700000000000080fa002d
:102c3400000006000c00fa002007980031079800f5
:102c440042079800530798005e0090000000e000df
:102c540032003200be0090005e009000808f500071
:102c640002003100de009000310798000000eb0004
:102c7400000f78001a0037002e0090001e0040005c
:102c8400104078000080fb00100798009e00900020
:102c940000062000808f5000080036009e0090003f
:102ca400a0072000808f500004003e009e0090008a
:102cb4000002200000806800100798004e00900079
:102cc4001e0040009e00900081407800014878007a
:102cd4001e0090000000e000060032001e0fe80015
:102ce4003e0090009e007800808f5000e2ff390083
:102cf40001003700000000005e0090009e00780094
:102d0400808f5000060031004e0090001e004000ed
:102d14008040eb000148780001003700000000000b
:102d24000080fa00000006000e00fa002007980058
:102d3400310798004207980053079800444f9800c1
:102d44000000eb00000f78003d0037002e009000db
:102d54001e00400090407800214798004e009000eb
:102d64001e00400090407800314798004e48900083
:102d74000004e00016003200ae40900000c6b3002c
:102d840080cf500007003600ae409000a0c7b300cb
:102d940080cf500003003e002e4090000054a1005c
:102da40020479800be40900000c6b30080cf50007a
:102db40007003600be409000a0c7b30080cf50008b
:102dc40003003e003e4090000054a10030479800ac
:102dd4003e4090000004e00007003a002e409000be
:102de4000004e00002003a000040eb003700370026
:102df40010c0b300350037002e4090000004e000fe
:102e040002003a0000c0eb0030003700ae409000f2
:102e14003e40900080cf50000200310000c0eb0023
:102e24002a003700ae4090003e40900080cf500012
:102e34000200360010c0b300240037001e0fe80063
:102e44003e0090009e007800808f50000400310006
:102e54005e0090009e007800808f5000bbff390018
:102e6400be0090005e009000808f50000900360084
:102e74002e0090001e004000104078000004e00086
:102e840002003a000040eb001000370010c0b3000d
:102e94000e003700be0090005e009000808f50004e
:102ea400090031004e0090001e00400010407800e0
:102eb4000004e00002003a000040eb000300370089
:102ec40000c0eb00010037000040eb000080fa0076
:102ed400000006002600fa00881f7800600f9800a2
:102ee400710f980002679800131798002417980030
:102ef4000000eb00100798000000200001f0230000
:102f040020079800310798000040eb00004f78003c
:102f140008003700d2cc2c00c3dc23002e00900024
:102f2400be009000a7f8070020079800310798001a
:102f34001e4fe8000e6090009e40780080cf500045
:102f4400f4ff390018c0b3006011b8006e08900097
:102f5400fe08900016f807000000e00001003500ac
:102f64000044eb000804e0000d0032006e089000fd
:102f7400fe08900001f0a200600f9800710f980005
:102f84009e1090001e00900000804000d1c2b3004b
:102f9400014878001e0090000000e8001007980027
:102fa4002e019000be0190006e089000fe08900073
:102fb400fbf60700600f9800710f98006e089000f0
:102fc400fe08900024f807002007980031079800b5
:102fd4002e009000be009000f9f7070060079800eb
:102fe400710798002e019000be0190006e089000b9
:102ff400fe089000e9f60700400798005107980082
:1030040070004700c3002000000178006e009000ab
:10301400fe0090004efe07000040eb00004f7800d9
:103024000f0037009e0090002e109000808f5000fb
:103034000a0031009e1090001e00900000804000a5
:103044009e80fb00f0804000eec0780001487800cc
:103054001e0090000000e800100798001e4fe800d2
:103064001e80fb00700040006e4078000004e00009
:10307400ecff3a009e0090002e109000808f5000cc
:10308400080031009e1090001e0090000080400057
:10309400e1c2b300014878001e0090000000e8007f
:1030a400100798000040eb00004f7800270037001d
:1030b4009e0090002e109000808f50002800310058
:1030c40002002000031224004e009000de00900055
:1030d4003cf8070040079800510798004e00900004
:1030e400de009000b6f707006007980071079800ab
:1030f4006e009000fe009000d2f7070020079800b1
:10310400310798002e019000be0190004e009000ff
:10311400de009000a1f607004007980051079800d0
:103124009e1090001e00900000804000ee00900071
:10313400814078000143b000014878001e009000ef
:103144000000e800100798001e4fe8000e60900091
:103154009e40780080cf5000d5ff39000100370031
:10316400000000009e0090002e109000808f500000
:10317400050031009e1090001e0090000080400069
:103184008040eb00014878001e1090004f04780046
:103194000080fa00000006001a00fa00100f9800e0
:1031a400210f9800320f9800430f98000000eb00a5
:1031b40010079800ea004700030009008018eb009c
:1031c4001e099000ae09900022079800330798006a
:1031d4003e0890008040eb00014878001e089000f3
:1031e400ae089000c809de00480add004801de0090
:1031f40002017200f00f200001002000800f510036
:10320400818f5900050036004e089000e90f5000e8
:1032140002003e003e089000670037001e0990003f
:10322400ae099000f00f200001002000800f510033
:10323400818f5900050036004e089000e50f5000bc
:1032440002003e003e0890005b0037001e0990001b
:10325400ae099000f00f200001002000800f510003
:10326400818f590005003e004e089000e30f500086
:1032740002003e003e0890004f0037003e089000d8
:1032840001c3b300014878003e0890000000e80044
:1032940081c7b300014878002e0090006f006000e1
:1032a400400798002e009000be0090004c09dd00fd
:1032b4004400de0000007100c408de00200798000e
:1032c400310798004e009000e90f50000b003600c3
:1032d4004e0090006a005000400798004e00900095
:1032e4000040780013c4b300834040001e009000e7
:1032f4006a00400001777800070037004e00900014
:103304000040780004c3b300844040001e009000d5
:103314006a004000017778001e0090000000e80079
:10332400100798002e009000be009000e00f50009f
:10333400e08f5800d8ff3a001e009000e10f5000c3
:1033440004003a0000c3b300304f9800200020006e
:103354001007980020002000000f780009003700b3
:103364003e0890001e0040009e0090009e80500089
:103374008100e800ea804000eec07800014878004f
:103384001e0fe8001e0090000080e8009e0f500011
:10339400f3ff3e004e0890009e007800808f50009e
:1033a400040031003e0890001e0040008040eb0005
:1033b400014878003e0890000080fa0000000600f2
:1033c4000c00fa0040079800510798000040eb00f9
:1033d400004f78000000eb00100798006000b80070
:1033e400200798003107980011003700ce009000a4
:1033f4001e0090000080400090407800d0c2b300ce
:1034040080cf500007003a0010c0b300004f78008e
:103414001e0090000000e800100798000000000063
:10342400340037001e0090000000e80010079800e8
:103434009e0090005e009000808f50002d003100af
:10344400ce0090001e009000008040009040780064
:10345400f0c2b30080cf5000e4ff3600ce009000ed
:103464001e009000008040009040780090c3b3009c
:1034740080cf5000ddff3e001e0037003e0090006c
:10348400ea01b9002e009000e000b90000014100fb
:10349400ae009000a00020000008b8000101410027
:1034a40082007800200798003107980020079800d0
:1034b40031079800ce0090001e009000008040006c
:1034c400104078000080fb000003b100cf80de00d4
:1034d4002e019000be01900002004000838048004d
:1034e40020079800310798001e0090000000e800b3
:1034f400100798009e0090005e009000808f50009e
:103504000e003100ce0090001e00900000804000ac
:1035140090407800f0c2b30080cf5000070036001e
:10352400ce0090001e009000008040009040780083
:1035340090c3b30080cf5000d0ff36001e40780007
:103544000004e000060032002e009000be0090004f
:1035540060001000e08018002007980031079800f0
:103564002e009000be0090000080fa0000000600cb
:103574002000fa00600f9800710f98006000b800f6
:10358400008fbe000000200001f8230020079800ef
:10359400310798000000eb00400798000040eb0062
:1035a400204f98000040eb00304f98006e089000c8
:1035b40090407800d0c2b30080cf500004003a009d
:1035c40010c0b300304f980010c0b300204f9800d3
:1035d4002e4890000080fb00400798000a00370046
:1035e400ee0890004e00900000804000904078006b
:1035f400e0c2b30080cf5000080032004e009000bb
:103604000000e80040079800ce0090007e0890007b
:10361400808f5000f2ff39000100370000000000e5
:10362400ce0090006e08900065ff070060079800c8
:1036340071079800ce0090007e089000808f5000a3
:1036440007003a006e009000fe00900080f607002c
:10365400008fbe001e0078009e00900054003700ca
:103664004e009000004078000040e800204f980091
:103674002e4890000080fb0040079800220037008d
:10368400ee0890004e0090000080400090407800ca
:10369400f0c2b30080cf50001f003600ee08900047
:1036a4004e009000008040009040780090c3b3002a
:1036b40080cf500018003e002e4890000080fb0090
:1036c400ce009000008050006e099000ce00900063
:1036d4008100410091407800740040000177780037
:1036e400d2cc2c00c3dc23002e009000be0090003e
:1036f400b4f6070020079800310798004e009000a8
:103704000000e80040079800ce0090007e0890007a
:10371400808f5000daff39002e4890000080fb00b3
:10372400ce009000808050007400470024ff070002
:10373400000f9800110f98000e0890009e0890004a
:1037440043f60700008fbe002e019000be019000da
:103754001e0078009e0090009af60700008fbe00bd
:103764006e009000fe00900039f6070020079800d4
:10377400310798002e019000be0190001e007800d1
:103784009e00900006f50700008fbe003e489000a2
:103794000004e000040032001e0078009e00900047
:1037a40001f0a200008fbe001e0078009e00900071
:1037b4000080fa00000006000c00fa0020079800c0
:1037c4003107980042079800530798000000eb0067
:1037d4001007980009003700ae0090001e0090000a
:1037e40000804000104078000004e0000700320030
:1037f4001e0090000000e800100798009e00900052
:103804003e009000808f5000f3ff39009e0090002e
:103814005e009000808f500002003600de009000b1
:10382400110798009e009000010f780007003700f0
:103834001e0fe9004e0090001e004000ae009000f4
:103844009e80400091407800014878001e00780076
:103854000000e000f6ff3a001e0090000080fa002d
:10386400000006000a00fa001007980021079800db
:1038740032079800430798000000eb00000f78001f
:10388400070037003e0090001e0040009e0090009c
:103894009e80400091407800014878001e0fe800a7
:1038a4002e0090009e007800808f500009003100a7
:1038b4004e0090009e007800808f5000050031007b
:1038c4001e0090001e004000104078000004e0003c
:1038d400ecff3a001e0078000080fa0000000600a9
:1038e4001000fa002007980031079800420798005a
:1038f4005307980064079800750798000000eb00d0
:10390400000f7800ce0090006e009000808f500071
:1039140077003a000000eb00100798000900370018
:10392400ae0090001e00900000804000104078001f
:103934000004e000070032001e0090000000e800d0
:10394400100798009e0090003e009000808f500069
:10395400f3ff39009e0090007e009000808f50009d
:103964004b0031000000eb00000f78000600370028
:103974004e0090001e004000104078000004e0005b
:10398400050032001e0fe8005e0090009e007800e3
:10399400808f5000f6ff3900fe0090001e0090005a
:1039a400008050009e0f500003003100fe00900084
:1039b4001e009000008f50001e0090001e0040006a
:1039c400500798009e007800110798000e003700f9
:1039d4001e0090000000e900100798005e009000af
:1039e4000000e90050079800ee0090005e0090008f
:1039f400008040004e0190009e0090008100410034
:103a040091407800014878001e0090000000e0001a
:103a1400efff3a000000eb00100798000b0037009e
:103a2400ee0090001e009000008040002e019000e7
:103a34009e00900081004100914078000148780088
:103a44001e0090000000e800100798009e009000ff
:103a54003e009000808f50000a0031009e009000cc
:103a64007e009000808f500006003100ae00900070
:103a74001e00900000804000104078000004e00028
:103a8400e7ff3a001e0090001e0f40005700370069
:103a94000000eb00000f7800070037006e00900074
:103aa4001e004000ae0090009e80400091407800cf
:103ab400014878001e0fe8003e0090009e00780048
:103ac400808f5000490031007e0090009e007800f5
:103ad400808f5000450031002e0090001e004000f1
:103ae400104078000004e000ecff3a003f0037008b
:103af4000000eb00000f7800070037006e00900014
:103b04001e004000ae0090009e804000914078006e
:103b1400014878001e0fe8003e0090009e007800e7
:103b2400808f5000090031007e0090009e007800d4
:103b3400808f5000050031002e0090001e004000d0
:103b4400104078000004e000ecff3a007e00900092
:103b54009e007800808f5000240031006e00900099
:103b64001e004000200798007e0090001e005000b8
:103b7400300798000000eb00100798000b00370096
:103b8400ae0090001e009000008040004e019000a6
:103b94009e00900081004100914078000148780027
:103ba4001e0090000000e800100798009e0090009e
:103bb4005e009000808f50000a0031009e0090004b
:103bc4003e009000808f500006003100ce0090002f
:103bd4001e00900000804000104078000004e000c7
:103be400e7ff3a001e0090001e0f40007e00900088
:103bf4009e007800808f5000040031006e00900019
:103c04001e0040008040eb00014878000080fa006c
:103c1400000006000a00fa00100798002107980027
:103c240032079800430798000000eb00000f78006b
:103c3400070037003e0090001e0040009e009000e8
:103c44009e80400091407800014878001e0fe800f3
:103c54002e0090009e007800808f500009003100f3
:103c64004e0090009e007800808f500005003100c7
:103c74001e0090001e004000104078000004e00088
:103c8400ecff3a004e0090009e007800808f5000b8
:103c9400040031003e0090001e0040008040eb0014
:103ca400014878000080fa00000006000400fa00d1
:103cb400004f780011479800224798003347980036
:103cc4001e4078000004e00005003a0000e12000f6
:103cd400708388006c30ef0010002000f0708800c2
:103ce4001e407800e14f500006003a0000e1200039
:103cf400708388001000200060838800200020006a
:103d0400f07088001e407800e24f500006003a0030
:103d140000e1200070838800200020006083880078
:103d240040002000f07088001e407800e34f5000ef
:103d340006003a0000e12000708388003000200073
:103d44006083880080002000f07088001e407800a6
:103d5400e44f500006003a0000e120007083880020
:103d6400400020006083880000012000f07088007b
:103d74001e407800e54f500006003a0000e12000a4
:103d840070838800500020006083880000022000b7
:103d9400f07088001e407800e84f500006003a009a
:103da40000e1200070838800800020006083880088
:103db40000102000f07088001e407800e94f500089
:103dc40006003a0000e12000708388009000200083
:103dd4006083880000202000f07088001e40780076
:103de400ea4f500006003a0000e12000708388008a
:103df400a00020006083880000402000f07088004c
:103e04001e407800ee4f500006003a0000e120000a
:103e140070838800e0002000608388000000240094
:103e2400f07088001e407800ef4f500006003a0002
:103e340000e1200070838800f00020006083880087
:103e440000002800f07088001e407800f44f5000f5
:103e540006003a0000e420007083880080002000ff
:103e64006083880000102000707288001e40780073
:103e7400f54f500006003a0000e4200070838800eb
:103e84009000200060838800002020007072880069
:103e940070838000104078000080fb00508388000d
:103ea4007083800061838000120020008110dd0097
:103eb4000141780051838000814078008140710085
:103ec400014878001e80fb007f00600040198800d4
:103ed40023c3a90023e3a9002e4090000004e000be
:103ee40002003a0023a3a9000100370023a3a8007d
:103ef4009e40900000c4b30080cf500002003a00fe
:103f040025e3a8000400370025e3a9001e40900023
:103f14000080fb00201988002143a80021e3a800a9
:103f24002023a8003e4090000080fb008000eb00ae
:103f3400620420008289b900e002b900840178009b
:103f440003014100630420000300b80001014100a3
:103f540082007800482607002023a9000080fa0088
:103f6400000006000400fa0020479800000000004a
:103f740000198000610060000000e000fcff3200d6
:103f84002e4090000004e00003003200011880007d
:103f9400010f780003003700001880004400de00a1
:103fa400000f78002023a8006004200001002000f6
:103fb400312607002023a9001e0078000080fa00a3
:103fc400000006000000fa00708380005183800026
:103fd400814078000148780021e3a9000e2eef000b
:103fe4001e2eef002e2eef004e2eef000080fa0062
:103ff400000006000000fa001722a8001702a9001a
:1040040017e2a800f01f2000a01088000080fa002a
:10401400000006000000fa001622ef000080fa00fb
:10402400000006000000fa001602a80000000000cc
:10403400b0108000610060000000e000fcff3a0066
:104044000080fa00000006000000fa001622a80012
:1040540000000000b0108000620060000000e0007a
:10406400fcff3a000080fa00000006000000fa009d
:104074001642a80000000000b01080006400600038
:104084000000e000fcff3a0000e62a00a100200046
:10409400f92507000080fa00000006000200fa007b
:1040a400004f78001e80fb00901088000000000084
:1040b400c110800000002400008060000000e000c7
:1040c400fbff3a00c110800000002800008060005f
:1040d4000000e0000200320010c0b300010037000d
:1040e4000040eb000080fa00000006000200fa0025
:1040f400004f78001662a80000000000b010800095
:10410400680060000000e000fcff3a001e407800f8
:104114000004e0000200320016a2a80001003700eb
:1041240016a2a9001682a80000000000b0108000aa
:10413400700060000000e000fcff3a008010800086
:10414400004078000080fa00000006000200fa0037
:10415400004f78001147980000042800b010880030
:104164001e80fb000000d100004078000080fb00ae
:10417400d01088001e4090000080fb000000d10099
:10418400004078000080fb00e01088000628a900a9
:104194000080fa00000006000000fa001622ef007a
:1041a4000080fa00000006000200fa00004f7800c8
:1041b4000628a9001e80fb00901088001782a80022
:1041c40000000000b11080000000210000806000a9
:1041d4000000e00004003200c010800068006000ad
:1041e4000000e000f7ff3a000628a900c110800093
:1041f40000002800008060000000e00004003a0095
:10420400c0108000680060000000e00002003a0076
:1042140010002000010037000000eb00004078008f
:104224000080fa00000006000400fa00204798000d
:1042340080108000004f78000628a900c11080007b
:1042440000022000008060000000e0001a0032003c
:10425400c0108000640060000000e00016003a0016
:104264002e4090000080fb000000ea004f00de00ba
:10427400004078000080fb00610060004500dd0024
:10428400b11080000150a10001007000b01088003e
:104294002e4090000004e00007003a001782a800b6
:1042a40000000000b11080000000210000806000c8
:1042b4000000e000fbff3a001782a8001e407800cf
:1042c4000080fa00000006000200fa000040eb0043
:1042d400004f780030408000620060000000e00081
:1042e400010032001e04a000c010800064006000c1
:1042f4000000e000010032001e24a000c010800075
:10430400680060000000e000010032001e34a000dc
:10431400c0108000700060000000e0000100320066
:104324001e44a000c1108000000220000080600034
:104334000000e000010032001e54a0001e4078007e
:104344000080fa00000006000000fa00013480003a
:10435400f00f2c000080600000c0a0000034880032
:10436400807180000010a10080718800a07180001d
:104374000010a100a07188000429ef000629ef00b5
:1043840050c0200000488800f00020001048880039
:104394000080fa00000006000000fa00807180002e
:1043a4000010a000807188000029ef000080fa004e
:1043b400000006000200fa00004f78001e4078005a
:1043c4000004e00002003a0010c0b300004f78007f
:1043d4001e80fb00204888000080fa0000000600d0
:1043e4000400fa00000f7800110798009e0078007e
:1043f400e10888001e00900001042000810f500095
:104404000b00320001102000810f50000b0032001d
:10441400e80f500003003200000028000009880063
:104424000900370000012800000988000600370051
:104434000002280000098800030037000003280058
:1044440000098800000000000080fa000000060057
:104454000200fa00000f78001e0078000000e0005f
:1044640002003a0010002000000f78009e0078003f
:10447400214888000080fa00000006000000fa00cd
:104484001134800000fc2f00008060001001b30094
:1044940010348800807180000020a10080718800a1
:1044a400a07180000020a100a0718800c00020003d
:1044b400604888000e29ef001029ef0050c020004a
:1044c40050488800f0002000604888000080fa000e
:1044d400000006000000fa00807180000020a000a7
:1044e400807188000a29ef000080fa0000000600ad
:1044f4000200fa00004f78001e4078000004e0003b
:1045040002003a0010c0b300004f78001e80fb0088
:10451400704888000080fa00000006000400fa00d9
:10452400000f7800110798009e007800e1088800c9
:104534001e00900001042000810f50000b00320087
:1045440001102000810f50000b003200e80f5000d2
:104554000300320000002800000988000900370029
:104564000001280000098800060037000002280026
:1045740000098800030037000003280000098800b0
:10458400000000000080fa00000006000200fa00ab
:10459400000f78001e0078000000e00002003a00de
:1045a40010002000000f78009e00780071488800f9
:1045b4000080fa00000006000000fa0001348000c8
:1045c40000fc2f00008060004001b300003488002c
:1045d400807180000000a10080718800a0718000bb
:1045e4000000a100a0718800c0002000504988008c
:1045f4002c29ef002e29ef0050c0200040498800ec
:10460400f0002000504988000080fa0000000600f5
:104614000000fa00807180000000a0008071880012
:104624002829ef000080fa00000006000200fa00ca
:10463400004f78001e4078000004e00002003a00b9
:1046440010c0b300004f78001e80fb006049880052
:104654000080fa00000006000400fa00000f780051
:10466400110798009e007800e10888001e00900061
:1046740001042000810f50000b00320001102000c3
:10468400810f50000b003200e80f5000030032008d
:1046940000002800000988000900370000012800f4
:1046a400000988000600370000022800000988007d
:1046b4000300370000032800000988000000000000
:1046c4000080fa00000006000200fa00000f7800e3
:1046d4001e0078000000e00002003a0010002000f4
:1046e400000f78009e007800614988000080fa007d
:1046f400000006000000fa0011348000f00f2c00c6
:104704008080600000502100010070001034880097
:10471400807180000030a10080718800a071800049
:104724000030a100a0718800c0002000a0498800ca
:104734003629ef003829ef0050c020009049880046
:10474400f0002000a04988000080fa000000060064
:104754000000fa00807180000030a00080718800a1
:104764003229ef000080fa00000006000200fa007f
:10477400004f78001e4078000004e00002003a0078
:1047840010c0b300004f78001e80fb00b0498800c1
:104794000080fa00000006000400fa00000f780010
:1047a400110798009e007800e10888001e00900020
:1047b40001042000810f50000b0032000110200082
:1047c400810f50000b003200e80f5000030032004c
:1047d40000002800000988000900370000012800b3
:1047e400000988000600370000022800000988003c
:1047f40003003700000328000009880000000000bf
:104804000080fa00000006000200fa00000f7800a1
:104814001e0078000000e00002003a0010002000b2
:10482400000f78009e007800b14988000080fa00eb
:10483400000006000000fa0081348000f00f2c0014
:104844008080600000202100010070008034880016
:10485400807280000030a10080728800a072800005
:104864000030a100a0728800c0002000b048880079
:104874001829ef001a29ef0050802000a048880072
:10488400e0002000b04888000080fa000000060024
:104894000000fa00807280000030a000807288005e
:1048a4001429ef000080fa00000006000200fa005c
:1048b400004f78001e4078000004e00002003a0037
:1048c40010c0b300004f78001e80fb00c048880071
:1048d4000080fa00000006000400fa00000f7800cf
:1048e400110798009e007800d10888001e009000ef
:1048f40001042000810f50000b0032000110200041
:10490400810f50000b003200e80f5000030032000a
:1049140000002800f0088800090037000001280082
:10492400f00888000600370000022800f00888001c
:104934000300370000032800f0088800000000008e
:104944000080fa00000006000200fa00000f780060
:104954001e0078000000e00002003a001000200071
:10496400000f78009e007800c14888000080fa009b
:10497400000006000000fa00c1348000f00f2c0093
:10498400808060000030210001007000c034880085
:10499400007380000000a100007388002073800071
:1049a4000000a10020738800c00020000049880096
:1049b4002229ef002429ef0050c02000f04888008d
:1049c400f0002000004988000080fa000000060082
:1049d4000000fa00007380000000a000007388004b
:1049e4001e29ef000080fa00000006000200fa0011
:1049f400004f78001e4078000004e00002003a00f6
:104a040010c0b300004f78001e80fb0010498800de
:104a14000080fa00000006000400fa00000f78008d
:104a2400110798009e007800e10888001e0090009d
:104a340001042000810f50000b00320001102000ff
:104a4400810f50000b003200e80f500003003200c9
:104a54000000280000098800090037000001280030
:104a640000098800060037000002280000098800b9
:104a7400030037000003280000098800000000003c
:104a84000080fa00000006000200fa00000f78001f
:104a94001e0078000000e00002003a001000200030
:104aa400000f78009e007800114988000080fa0009
:104ab400000006000000fa00b1348000f00f2c0062
:104ac400008060000080a000b0348800213680009f
:104ad40000f82f0080806000800620000100700034
:104ae4002036880050022000401188002222ef0066
:104af4002022ef0021e2a8002342a8002168a90097
:104b04000080fa00000006000000fa002222ef00f4
:104b14002022ef000080fa00000006000200fa00e4
:104b2400000f780000000000111180000020200018
:104b3400008060000000e000fbff3a00f00f20005e
:104b44001e0f60009e007800211188000080fa008a
:104b5400000006000a00fa00004f980000c0eb00b5
:104b6400004f78000040eb00104798000040eb0035
:104b7400604798000040eb00204798000040eb009d
:104b8400304798000040eb00704798000e489000b2
:104b9400e14f40002b003a0010c0b30020479800ba
:104ba400280037002e4090000004e0001c003a006a
:104bb4000e4890000004e00003003a0010c0b30067
:104bc40030479800160037000000eb0020079800db
:104bd400030037002e0090000000e8002007980032
:104be400ae00900050042000808f5000f9ff360082
:104bf4001e4090000040e800104798001e409000be
:104c0400e64f400006003a000e4890000040e900dc
:104c1400004f98000060fe000040eb001047980031
:104c240010118000004078006140600060479800e7
:104c34006e4090000004e0000200320020c0b30087
:104c4400304798003e4090000004e000d5ff320059
:104c54003e409000e24f500017003a0010118000cf
:104c64004200de0061406000604798006e409000a2
:104c74000004e00003003200301180007047980007
:104c84000d003700101180000000d1006140600069
:104c9400604798006e4090000004e000020032007b
:104ca4002222a900040037000040eb00004f7800e6
:104cb40030118000004f78001e80fb000080fa0055
:104cc400000006000000fa000080fa000000060060
:104cd4000400fa00204798002e409000e74f50004f
:104ce40039003e002e4090000004e00003003a002a
:104cf400d0e32000000f78002c0037002e409000f5
:104d0400e14f500003003a00e0712000000f7800ea
:104d1400260037002e409000e24f500003003a0076
:104d2400f0382000000f7800200037002e4090005b
:104d3400e34f500003003a00701c2000000f78007d
:104d44001a0037002e409000e44f500003003a0050
:104d5400300e2000000f7800140037002e40900021
:104d6400e54f500003003a0010072000000f7800c0
:104d74000e0037002e409000e64f500003003a002a
:104d8400b0042000000f7800080037002e40900087
:104d9400e74f500003003a0050022000000f780053
:104da40002003700701c2000000f780021e2a900e7
:104db4002342a9009e0078004111880021e2a80046
:104dc4002342a80001003700000000000080fa0020
:104dd400000006000600fa0040479800514798007a
:104de400ce409000e0c5b30080cf500003003600f1
:104df400a0cab300004f78000c0037004e4090006a
:104e04000080fb00e500b900800078005e4090005f
:104e14000080fb000080400010079800e1a62800f5
:104e24001e00900000804000104f78001e40780063
:104e34000080fa00000006000e00fa003007980017
:104e44004107980052079800434f9800544f980028
:104e54000e0178003e009000cf80de006300200049
:104e6400bbf60700de4a90004e4a9000de01900037
:104e74004e019000610020000e007800a901070097
:104e84000080fa00000006001600fa00600798008f
:104e940071079800020f9800130f98004457980068
:104ea400555798000e007800c300200000017800d8
:104eb4006e009000fe00900039f60700de5290006c
:104ec4004e5290009e0990000e099000c1002000ef
:104ed4000e007800930107000080fa00000006002d
:104ee4001200fa00604f9800714f98000257980022
:104ef400135798000000eb00000f7800100020000a
:104f04003007980010002000400798000e509000d1
:104f14008080fb006e4890000080fb000080500001
:104f2400100798001e5090008080fb007e4890007f
:104f34000080fb0000805000200798001e009000b5
:104f44000000e00005003d000080eb003007980001
:104f54001e0090000000ea00100798002e00900048
:104f64000000e00005003d000080eb0040079800d1
:104f74002e0090000000ea0020079800ae00900088
:104f84001e009000808f500021003c001e00900005
:104f940000004000500798002e00900000004000e0
:104fa4006007980015003700fe4890006e48900096
:104fb400b70007003e00900000407800ee489000e3
:104fc40000c04000604f98006e0090001e0f40002b
:104fd4001e0090009e007800808f5000070034006f
:104fe4004e00900000407800fe48900000c0400051
:104ff400704f98005e0090001e0f1000ee48900065
:105004000e50900080cf5000e7ff3a002000370098
:105014002e00900000004000500798001e009000f1
:10502400000040006007980015003700fe4890001b
:105034006e489000960007004e00900000407800f3
:10504400fe48900000c04000704f98006e00900031
:105054001e0f40002e0090009e007800808f5000ac
:10506400070034003e00900000407800ee489000b5
:1050740000c04000604f98005e0090001e0f1000ba
:10508400fe4890001e50900080cf5000e7ff3a0089
:10509400fe4890006e4890007d0007000080fa00f2
:1050a400000006000200fa00004f78000070800043
:1050b4000030a10000708800207080000030a00043
:1050c40010708800007080000020a100007088002b
:1050d400207080000020a100107088000870ef008c
:1050e400220037001e4078000004e00007003d0065
:1050f400007380000080a10000738800207380008a
:105104000080a00010738800060037000073800040
:105114000080a10000738800207380000080a1003b
:1051240010738800007380000060a1000073880081
:10513400207380000060a100107388001e40780076
:1051440000404000004f7800007380000060a10020
:1051540000738800207380000060a0001073880032
:1051640008d0bf000040e80008f0b70008d0bf0036
:10517400e74f5000dbff360010d0bf000040e800ce
:1051840010f0b70010d0bf000004e00009003d009b
:10519400010121009140780000c8b30000c0400024
:1051a40010f0b700f10021009140780010d0bf004a
:1051b40008000700007080000020a1000070880033
:1051c400207080000020a000107088000080fa0089
:1051d400000006000600fa00404798005147980076
:1051e4004e4090000004e00002003d000040eb004f
:1051f400404798005e409000ff4f50000200360088
:105204000040eb00504798004e41900001012100fe
:10521400824878005e419000f100210082487800c5
:105224005e4090000080fb004300de0000407800f8
:105234000ef0b700e10021009140780000cbb300ec
:1052440000cf70004e4090000080fb004400de0060
:10525400004078000044a000104798004e409000a1
:105264006f4060002047980000c4b3008901070024
:105274001e407800870107001e409000850107004a
:105284002e409000830107000080fa000000060011
:105294000800fa0060479800714798007e4090002b
:1052a4000080fb004300de00004f78006e40900059
:1052b4000004e00004003d00ee40900000c8b3008c
:1052c40000c04000604798001e80fb00c700dd005e
:1052d4006e4090000080fb000080400010079800a2
:1052e4007e409000674060004047980090808000b6
:1052f4000000e00011003200810921001e0090002e
:105304000080400010407800804078004e409000bb
:105314000080fb00120020000010dd000040780037
:1053240000c0700080407800820921001e009000b7
:105334000000410001487800110037008109210074
:105344001e009000008040001040780080407800eb
:105354004e4090000080fb00120020000010dd0091
:105364000040780000c0ea0000c06000804078007f
:10537400820921001e0090000000410001487800cd
:1053840000cbb3001e407000420107006e40900045
:105394000080fb004400de00004078000044a000d0
:1053a4003c0107006e4090006f4060003901070027
:1053b400810921001e009000008040001040780008
:1053c40038ff07000080fa00000006000200fa001f
:1053d400004f78001e417800410121008248780086
:1053e4000080fa00000006000800fa0060479800f8
:1053f400714798007e4090000080fb004300de006f
:10540400004f78006e4090000004e00004003d006e
:10541400ee40900000c8b30000c040006047980010
:105424001e80fb00c700dd006e4090000080fb0082
:1054340000804000100798007e40900067406000a4
:1054440040479800608080000000e00011003200b6
:10545400810921001e009000008040001040780067
:10546400804078004e4090000080fb001200200035
:105474000010dd000040780000c07000804078001b
:10548400820921001e0090000000410001487800bc
:1054940011003700810921001e00900000804000a7
:1054a40010407800804078004e4090000080fb005f
:1054b400120020000010dd000040780000c0ea0067
:1054c40000c0600080407800820921001e00900026
:1054d400000041000148780000cbb3001e4070007a
:1054e400ec0007006e4090000080fb004400de00ea
:1054f400004078000044a000e60007006e409000e1
:105504006f406000e3000700810921001e00900045
:105514000080400010407800e2fe07000080fa009e
:10552400000006001800fa00881f78007007980031
:10553400010f9800120f9800230f980064579800e9
:10554400755798000040eb00404798002e089000e3
:10555400670060000000e00007003a0010c0b300dc
:10556400404798002e089000804078001e08900064
:105574000040780017ff07000040eb003047980018
:105584007e0090008e08900076f207005047980045
:10559400800037003e4090000080fb00fe00900039
:1055a40000804000104078008040780000ceb300b6
:1055b40000c04000604798000040eb00204798007e
:1055c4000a0037002e4090000084fb00ae4090009b
:1055d4006e409000fffd0700e700440000f77800ec
:1055e4002e4090000040e800204798002e40900094
:1055f400e44f5000f3ff36000040eb00004f78000a
:105604002e4090000080fb00670040008040eb00cb
:1056140001777800560037004e4090000004e00007
:10562400030032007e5090000004e00029003200a4
:105634000040eb0010479800220037001e80fb005a
:10564400670040006e4078008080fb001e409000a0
:105654000080fb000088de006100600000407800ec
:105664000004e000090032002e0890008040780019
:105674001e40900080c040001e089000004078004a
:105684001e40400002ff07000b0037007e509000d0
:105694000004e00008003a002e08900080407800e2
:1056a4001e40900080c040001e089000004078001a
:1056b4001e4040004cff07001e4090000040e800e0
:1056c400104798001e409000e74f5000dbff360063
:1056d40026003700908080000000e00011003200b6
:1056e4000ed0bf000080fb00c700dd0010d0bf005b
